:020000040800F2
:1000000000300020414B00087D1500087F150008D6
:100010008115000883150008851500080000000000
:10002000000000000000000000000000871500082C
:1000300089150008000000008B1500088D150008C8
:10004000914B0008914B0008914B0008914B000820
:10005000914B0008914B0008951500089F1500086A
:10006000A9150008B3150008914B0008914B000832
:10007000BD150008CD150008914B0008914B0008F4
:10008000914B0008914B0008914B0008914B0008E0
:10009000914B0008914B0008914B0008914B0008D0
:1000A000DD150008ED150008FD1500080D16000807
:1000B0001D160008914B000800000000914B00083D
:1000C000914B00080000000000000000914B000868
:1000D00000000000914B0008914B00082D1600080D
:1000E000914B0008914B0008000000000000000048
:1000F0000000000000000000000000000000000000
:1001000000000000000000000000000000000000EF
:100110000000000000000000914B0008914B000817
:1001200000000000000000000000000000000000CF
:1001300000000000000000000000000000000000BF
:10014000914B0008914B000800000000914B000803
:10015000914B0008914B0008914B0008914B00080F
:10016000914B0008914B00080000000000000000C7
:10017000000000000000000000000000000000007F
:0801800000000000914B000893
:1001880053B94AB9002908BF00281CBF4FF0FF31F6
:100198004FF0FF3000F00CB8ADF1080C6DE904CE5B
:1001A80004F02EFDDDF804E0DDE9022304B0704719
:1001B800704700BF0348044B834202D0034B03B18E
:1001C8001847704724000020240000200000000089
:1001D8000548064B1B1AD90F01EBA301491002D0A1
:1001E800034B03B118477047240000202400002067
:1001F8000000000010B5064C237843B9FFF7DAFF7A
:10020800044B13B10448AFF300800123237010BDE1
:100218002800002000000000C44E000808B5054B67
:100228001BB105490548AFF30080BDE80840FFF75A
:10023800CFBF00BF000000002C000020C44E000803
:10024800044B436140F201138361034BC3611323E1
:100258000362704704000200C2801F0008B5012233
:10026800018AC06801F064FE08BD08B50022018A51
:10027800C06801F05DFE08BD10B582B004460431C7
:1002880000EB81014B681A0C8DF804201A0A8DF8CE
:1002980005208DF8063000220189406801F048FEEB
:1002A8000A23032201A9206803F0C0F90122218949
:1002B800606801F03DFE02B010BD10B50446FFF7BE
:1002C800D4FF01222189606801F032FE00BF00BF1F
:1002D80000BF00BF02212046FFF7CEFF00BF00BFCE
:1002E80000BF00BF00212046FFF7C6FF00BF00BFC8
:1002F80000BF00BF01212046FFF7BEFF00BF00BFBF
:1003080000BF00BF2046FFF7A9FF10BD10B58369E5
:1003180023F4FF1323F4F8538361054C04EA012402
:100328002343836102B910BD0121FFF7A5FFFAE756
:1003380000FF1F0008B5436923F47F4323F0FC0343
:100348004361890089B20B43436102B908BD0021AA
:10035800FFF792FFFAE7000000B583B00E4B5A6929
:1003680042F001025A615B6903F001030193019BAA
:10037800002211460C2001F0A1FB0C2001F0AEFB7D
:10038800002211460D2001F099FB0D2001F0A6FB7B
:1003980003B05DF804FB00BF001002402DE9F043F4
:1003A8008BB00024059406940794089409945F4B35
:1003B8005A6942F400225A615A6902F400220192F1
:1003C800019A5A6942F480025A615A6902F4800219
:1003D8000292029A5A6942F400325A615A6902F446
:1003E80000320392039A5A6942F480225A615B6987
:1003F80003F480230493049B224610214FF090407D
:1004080001F096FD4A4E22464EF21F21304601F079
:100418008FFD4FF4604305934FF00309CDF8189012
:10042800079405A9434801F0A5FC012505954FF45B
:100438008818CDF818800227079705A94FF0904033
:1004480001F098FC0597CDF81880079405A94FF09E
:10045800904001F08FFC0C2305934FF4041306938E
:10046800079505A94FF0904001F084FC10230593EF
:1004780006950794089505A94FF0904001F07AFC7D
:100488004EF21F23059306950794089405A9304654
:1004980001F070FC4FF48078CDF81480069707942B
:1004A8000894099405A94FF0904001F063FC4FF4BB
:1004B80018430593CDF81890079405A94FF090407C
:1004C80001F058FC202305930694079705A93046A8
:1004D80001F050FCCDF814800694079505A9304624
:1004E80001F048FC22462146062001F0E7FA0620E2
:1004F80001F0F4FA22462146072001F0DFFA07202E
:1005080001F0ECFA22462146082001F0D7FA08202B
:1005180001F0E4FA22462146092001F0CFFA092029
:1005280001F0DCFA0BB0BDE8F08300BF0010024018
:1005380000040048000800480268094B9A4200D0AD
:10054800704782B003F51C439A6942F000529A61E1
:100558009B6903F000530193019B02B0704700BFF1
:100568000074014000B587B0002301930293039300
:100578000493059302680F4B9A4202D007B05DF8C6
:1005880004FB03F51C435A6942F480225A615B69F3
:1005980003F480230093009B4FF4805301930223BC
:1005A8000293032304930D23059301A9024801F044
:1005B800E1FBE3E7007401400004004810B5A4B073
:1005C80000242094219422942394542221460BA899
:1005D80004F0DBFA089409940A942022214668461C
:1005E80004F0D3FA3B483C4B03604460846001F05C
:1005F80063FE002858D10021364801F0C7FE0028C4
:1006080055D10A21334801F0FAFE002852D140F2B0
:10061800A45320930023219322930823239320AAF1
:1006280002212C4801F00DFF002846D100230B932E
:100638000C930D930E9301220F9210931193129322
:1006480013931493159316931793189319931A9356
:100658001B931C931D931E931F930BAA02211D48E5
:1006680001F008FF60BB40F2D223089308AB0122D7
:100678000221184801F036FF28BB0023009304220A
:100688000192082202920393049305930693079319
:100698006B46102202210F4802F005F8B0B90D4848
:1006A800FFF760FF24B010BD00F0BCF9A3E700F02D
:1006B800B9F9A6E700F0B6F9A9E700F0B3F9B5E78C
:1006C80000F0B0F9CFE700F0ADF9D6E700F0AAF9ED
:1006D800E5E700BF440000200074014008B5124857
:1006E800124B0360124B4360002383600122C260F7
:1006F800036143618361C361036202F00CF850B97E
:100708000021094802F065F840B90021064802F0C6
:100718008EF830B908BD00F085F9F1E700F082F9EC
:10072800F3E700F07FF9F5E72001002000540040CE
:100738000E09002010B588B0002303930493059395
:10074800069307930268124B9A4201D008B010BD75
:10075800104C636943F480236361636903F4802365
:100768000193019BC023039312230493032306934D
:100778000423079303A9084801F0FCFAE36943F44A
:100788000013E361E36903F400130293029BDDE7BE
:1007980000540040001002400004004800220A6093
:1007A8004A608A60C1F80B20026042608260C0F82B
:1007B8000B2001230B7042704B7082708B704FF0CE
:1007C800780C80F803C0CB704FF0050C80F804C09B
:1007D8000B714FF0840C80F805C04B714FF04B0C37
:1007E80080F807C0CB714FF0450C80F808C00B7239
:1007F8004FF0380C80F809C04B724FF0490C80F864
:100808000AC08B724FF0540C80F80BC0CB724FF0BB
:10081800460C80F80CC00B7342738B737047000052
:10082800014BD3E900017047B002002008B5174B0F
:100838001968022913DC164B1B78A52B1AD1144B07
:100848005B78052B16D80331104B1960104B9A783A
:100858001E2A0FDC19440F4804F0FAF80AE00E4B80
:100868001B7843B1094B00221A6003220849094842
:1008780004F0EEF808BD06498A780332074804F008
:10088800B1F9054B01221A70ECE700BF20030020E4
:10089800480300208405002045030020240300208D
:1008A8000368B3F1804F04D0474A934200F0888030
:1008B800704770B5454CD4E9002312F1640043F148
:1008C8000001C4E90001424B1B78DBB2062B1AD8A1
:1008D800DFE803F01A344557651904003D4803F072
:1008E80049F910213C4801F0FAFE3C4C002208214D
:1008F800204601F01DFB00221021204601F018FBC4
:10090800334B00221A7070BDFFF78AFF344BD3E9CE
:100918000056401B334B5A7B9C7B44EA0224324AE4
:100928004FF0000361EB0601FFF72AFCA04271F1CA
:100938000001E8D3264B01221A70E4E72B48FFF7A1
:100948008DFC01221021254801F0F2FAFFF768FF1B
:10095800274BC3E900011E4B02221A70D3E7FFF7A9
:100968005FFF234BD3E90023801A61EB030142F2B6
:100978001073984271F10001C5D3154B03221A7008
:10098800C1E701220821154801F0D2FAFFF748FF14
:10099800174BC3E900010E4B04221A70B3E7FFF7A7
:1009A8003FFF134BD3E90023801A61EB0301B0F535
:1009B8007A7F71F10001A6D3054B05221A70A2E7D0
:1009C800034B1B78704700BF002C0140B002002089
:1009D80000000020280400204400002000040048F3
:1009E80098020020EC02002040420F00B8020020CC
:1009F80090020020012800D0704770B5FFF710FF63
:100A080002460B46054ED6E90045001B61EB050181
:100A1800034CC4E90001C6E9002370BDA802002008
:100A2800A002002072B6FEE700B597B02822002188
:100A38000CA804F0AAF800230793089309930A93D3
:100A48000B930093019302930393049305930693E6
:100A580003230C934FF480330D930122109210223C
:100A680011920222139214934FF4801315930CA839
:100A780001F00AFF20BB0F230793022108910023EE
:100A880009934FF480620A920B9307A802F07AFA4E
:100A9800C0B945F221030093002302930393059301
:100AA8004FF480530693684602F072FB60B9002247
:100AB8004FF0C061104602F0FFF917B05DF804FB73
:100AC800FFF7B0FFFFF7AEFFFFF7ACFFF8B500F098
:100AD80077FFFFF7A9FFFFF761FCFFF73DFCFFF782
:100AE8006DFDFFF7FBFD00F0D3FC00F073FE00F096
:100AF8008DFE03F0CFFF00F0A7FD00F0DFFD8B4D6A
:100B080000221021284601F013FA00220821284665
:100B180001F00EFA002210214FF0904001F008FA7F
:100B280001220421284601F003FA81498148FFF790
:100B380035FE814C814B236002232382E56010231C
:100B480023814FF0904363602046FFF78EFB2046D9
:100B5800FFF776FB002240F284512046FFF7D6FBD0
:100B6800002278212046FFF7E5FB2046FFF7A5FB8A
:100B78002046FFF77AFB724B1B6803227149194420
:100B8800714803F065FF714803F008F87048714B2D
:100B9800C0F81031704A714900F016FE27E00023B2
:100BA8001A466F49C97899420ADD6E496C48C05C9B
:100BB8008854541C5F4D285C085502320133F0E715
:100BC800694B9A70694B00221A7067498A78033218
:100BD800614803F069FA664BD3E900231A4340F0F1
:100BE8008C8000224FF40051504801F0A1F95F4B6E
:100BF8001B78002BEFD05A4B1B78A52BEBD15A4A08
:100C08001370574B5B785370013B042BDAD801A261
:100C180052F823F0A70B0008310C00087D0C0008DF
:100C2800930C0008E90C00084D4AD3781279C3F1F7
:100C38000F018A4202DD002906DBCAB23D49194488
:100C4800484803F0CFFFBDE70022F7E70233444AE4
:100C580092789A4211DD474AD25C5C1C3449895C1F
:100C68000029F3D043490C5D32498C543D490A545C
:100C78000130EBE700231846E9E73B4B9870002862
:100C8800A0DD3D4B01221A709CE7354AD378947851
:100C9800013CE4B21A46C3F10F018C4202DD00297F
:100CA80003DBCCB20023194603E00024FAE7013243
:100CB80001339C420ADD1E48805C0028F7D02F488B
:100CC800C55C1C4885540131C9B2F0E7264B0122A6
:100CD8009A70D97000293FF475AF274B1A7071E7E5
:100CE800214B04229A701E4AD178D9701179197152
:100CF8005179597192799A7164E7FFF791FD204B08
:100D0800D3E900451A4BD3E90067A31945EB07025D
:100D1800643342F1000283428A41FFF462AF012248
:100D28004FF40051014801F003F960E7000400485E
:100D3800DC020020EC020020B8020020780300202A
:100D48002003002048030020FC040020DC030020CE
:100D580074010020111A00088405002020010020D9
:100D680024030020FF020020FC020020450300208D
:100D7800A002002027030020FB02002028030020F7
:100D8800A802002000B587B08DF80F003223009329
:100D980001230DF117020DF10F01044802F045FD82
:100DA8009DF8170007B05DF804FB00BF780300202A
:100DB80070B5064600F022FE0546FF20FFF7E2FF69
:100DC8000446FF2804D000F019FE401BB042F4D3BB
:100DD800FF2C14BF0020012070BD70B506460D46DB
:100DE800002404E0FF20FFF7CDFF30550134AC426A
:100DF800F8D370BD70B506460D46002403E0305D9B
:100E0800FFF7C0FF0134AC42F9D370BD38B50546D1
:100E18000C464FF4FA70FFF7CBFF00B938BD2046F7
:100E2800FFF7B0FFFD2C01D10120F7E74FF4007167
:100E38002846FFF7DFFFFF20FFF7A4FFFF20FFF79B
:100E4800A1FFFF20FFF79EFF00F01F00052801D13A
:100E58000120E3E70020E1E708B501220421034867
:100E680001F066F8FF20FFF78DFF08BD0004004879
:100E780010B500220421094801F05AF8FF20FFF7B5
:100E880081FF4FF4FA70FFF793FF10B10124204659
:100E980010BD0446FFF7E0FFF9E700BF0004004873
:100EA80038B504460D4610F0800F1DD10C2C04D027
:100EB800FFF7D2FFFFF7DCFFB0B344F04000FFF7C5
:100EC80061FF280EFFF75EFFC5F30740FFF75AFFE3
:100ED800C5F30720FFF756FFE8B2FFF753FF64B1E9
:100EE800082C1BD0012009E000F07F0400213720E6
:100EF800FFF7D6FF0128D9D90FE09520FFF742FF69
:100F08000C2C0DD00A24FF20FFF73CFF10F0800FB7
:100F180003D0631E13F0FF04F5D138BD8720EDE739
:100F2800FF20FFF72FFFEDE7FF20F6E710B5044697
:100F380000F064FD024B1860024B1C6010BD00BF3E
:100F4800700300206C03002008B500F057FD054B26
:100F58001B68C01A044B1B6898422CBF0020012054
:100F680008BD00BF700300206C03002070B5054663
:100F78000E46C820FFF7DAFFFF20FFF703FF0446FD
:100F8800FF2803D1FFF7E0FF0028F5D1FE2C01D0A0
:100F9800002070BD31462846FFF71FFFFF20FFF7EE
:100FA800F1FEFF20FFF7EEFE0120F2E7002840F0F7
:100FB800AD80574B1B7813F0020F0BD170B582B080
:100FC800544B1A68136823F0380343F03003136056
:100FD8000A2408E04E4B1878C0B27047FF20FFF78C
:100FE800D1FE013CE4B2002CF8D100210846FFF7FD
:100FF80057FF0546012817D0474B1C70FFF72CFFF9
:10100800002C7FD0434B1A68136823F0380343F051
:10101800100313603E4A137803F0FE0313703C4B31
:101028001878C0B202B070BD4FF47A70FFF77EFF37
:101038004FF4D5710820FFF733FF01283ED125462C
:1010480009E0FF20FFF79EFE05F108036B4403F853
:10105800040C0135EDB2032DF3D99DF80630012BB0
:10106800CAD19DF80730AA2BC6D1FFF76DFF30B162
:101078004FF08041A920FFF713FF0028F5D1FFF7B3
:1010880063FF08B90446B7E700213A20FFF708FFD5
:10109800054650B1B0E7FF20FFF774FE05F10803DD
:1010A8006B4403F8040C0135EDB2032DF3D99DF818
:1010B800043013F0400F23D00C249DE70021A92011
:1010C800FFF7EEFE01280ED92E46FFF73DFF28B1A7
:1010D80000212846FFF7E4FE0028F6D1FFF734FF89
:1010E80020B9044688E70226A925EEE74FF40071E7
:1010F8001020FFF7D5FE00287FF47EAF34467BE74B
:10110800042479E7024B01221A7088E7012070470E
:1011180001000020780300207403002018B9034B55
:101128001878C0B270470120704700BF0100002046
:10113800002839D138B50D461C46002B36D01D4B3A
:101148001B7813F0010F33D11B4B1B7813F0080FDA
:1011580000D15202012C18D011461220FFF7A0FE30
:1011680068B94FF400712846FFF700FF18B105F57C
:101178000075013CF5D100210C20FFF791FEFFF727
:101188006BFE201E18BF012038BD11461120FFF745
:1011980087FE0028F3D14FF400712846FFF7E6FEDA
:1011A8000028ECD00024EAE7042070470420EBE78D
:1011B8000320E9E70100002074030020002848D13B
:1011C80070B50D4616461C46002B44D0254B1B789F
:1011D80013F0010F41D1234B1B7813F0040F3ED1BC
:1011E800214B1B7813F0080F00D15602012C1BD09D
:1011F80013F0060F26D131461920FFF751FE68B9C2
:10120800FC212846FFF702FE18B105F50075013CE0
:10121800F6D1FD210020FFF7F9FDC0B1FFF71CFE54
:10122800201E18BF012070BD31461820FFF738FE78
:101238000028F3D1FE212846FFF7E8FD0028EDD06D
:101248000024EBE721469720FFF72AFED3E7012485
:10125800E4E7042070470420E5E70320E3E70220E1
:10126800E1E700BF010000207403002070B584B0DE
:10127800002840F004810D461646834B1B7813F076
:10128800010F40F0FE80042900F2ED80DFE811F044
:1012980005000C00EB005400AF00FFF7E9FD002843
:1012A80040F0E380012406E000210920FFF7F8FD63
:1012B800044628B12C46FFF7CFFD204604B070BD88
:1012C80010216846FFF752FE002800F0D0809DF8F4
:1012D80000309B09012B1FD09DF8052002F00F025A
:1012E8009DF80A3002EBD3129DF809305B0003F039
:1012F80006031A449DF808109DF807309B0003EB7D
:1013080091139DF80610890201F440610B440133E2
:10131800073A93403360CEE79DF809309DF80820DE
:1013280003EB02239DF80720120402F47C121344F5
:1013380001339B023360BEE7544B1B7813F0040F54
:1013480020D000218D20FFF7ABFD08B10124B2E7C2
:10135800FF20FFF717FD10216846FFF707FE78B951
:101368000124A8E7FF20FFF70DFD013CE4B2002CA3
:10137800F8D19DF80A2012091023934033609AE7A8
:101388003024F4E700210920FFF78AFD054608B15B
:10139800012490E710216846FFF7E8FD002868D08F
:1013A8003A4B1C7814F0020411D09DF80A305B0007
:1013B80003F07E039DF80B2003EBD21301339DF855
:1013C8000D209209013A934033602C4673E79DF84B
:1013D8000A20C2F384029DF80B10CB0003F0180317
:1013E80003EB5113013302FB0333336063E7274BED
:1013F8001B7813F0060F01D101245CE76A460B2124
:10140800FFF734FFB8BB9DF800309B0904D19DF865
:101418000A3013F0400F30D0316874681B4B1B78CA
:1014280013F0080F01D1490264022020FFF738FDAC
:1014380008B101243FE721462120FFF731FD08B11B
:10144800012438E700212620FFF72AFD044608B1C9
:10145800012430E747F23050FFF7AAFC00287FF458
:101468002AAF012427E7042425E72C4623E72C4646
:1014780021E701241FE701241DE701241BE70424B9
:101488001BE7032419E700BF0100002074030020B4
:1014980008B51048104B03604FF482734360002373
:1014A80083604FF44072C260036143614FF400727D
:1014B80082611822C2610362436283620722C262A8
:1014C80003630823436302F042F800B908BDFFF73D
:1014D800A9FAFBE7780300200030014000B589B085
:1014E8000023039304930593069307930268144B10
:1014F8009A4202D009B05DF804FB03F560439A698B
:1015080042F480529A619A6902F480520192019AD7
:101518005A6942F400325A615B6903F4003302935A
:10152800029BE023039302230493032306930523DA
:10153800079303A94FF0904000F01CFCDAE700BFC6
:101548000030014082B00A4B9A6942F001029A6168
:101558009A6902F001020092009ADA6942F0805218
:10156800DA61DB6903F080530193019B02B0704795
:1015780000100240FEE7FEE7FEE7FEE7FEE77047E1
:101588007047704708B500F02DFA08BD08B501206E
:1015980000F0D4FC08BD08B5022000F0CFFC08BD5F
:1015A80008B5042000F0CAFC08BD08B5082000F002
:1015B800C5FC08BD08B5024800F083FB08BD00BFA4
:1015C8007404002008B5024800F07BFB08BD00BF8A
:1015D800B804002008B5024802F01EFB08BD00BF91
:1015E8002804002008B5024802F016FB08BD00BF19
:1015F8002804002008B5024802F00EFB08BD00BF11
:101608002804002008B5024802F006FB08BD00BF08
:101618002804002008B5024802F0FEFA08BD00BF01
:10162800DC03002008B5024802F0FCFD08BD00BF3D
:10163800FC040020034AD2F8883043F47003C2F84F
:101648008830704700ED00E000B589B000230493AE
:101658000593069307930193029303931548164A3B
:1016680002604360836042F21072C26003614361AA
:10167800836102F0E7FB98B94FF48053049304A9FF
:101688000C4802F01DFC70B90023019302930393E8
:1016980001A9084802F094FC40B909B05DF804FBC0
:1016A800FFF7C0F9E8E7FFF7BDF9EDE7FFF7BAF98B
:1016B800F3E700BF28040020002C014000B589B0E2
:1016C80000230493059306930793019302930393CE
:1016D80014484FF080420260436083604FF43472D4
:1016E800C2600361836102F0ADFB90B94FF480538F
:1016F800049304A90B4802F0E3FB68B900230193A3
:10170800039301A9074802F05BFC40B909B05DF8F2
:1017180004FBFFF787F9E9E7FFF784F9EEE7FFF73E
:1017280081F9F3E7DC03002000B583B00368244A9D
:10173800934205D0B3F1804F2DD003B05DF804FB80
:10174800204B9A6942F400629A619B6903F4006332
:101758000093009B00221146182000F0AFF91820D2
:1017680000F0BCF900221146192000F0A7F9192051
:1017780000F0B4F9002211461A2000F09FF91A204F
:1017880000F0ACF9002211461B2000F097F91B204D
:1017980000F0A4F9D1E703F50433DA6942F0010255
:1017A800DA61DB6903F001030193019B0022114612
:1017B8001C2000F083F91C2000F090F9BDE700BF61
:1017C800002C014000100240016042604223037275
:1017D8007047000008B50B480B4B03604FF4E1332A
:1017E800436000238360C36003610C22426183610C
:1017F800C3610362436203F0A6F800B908BDFFF7AE
:1018080011F9FBE7840500200038014008B50B48B2
:101818000B4B03604FF4E133436000238360C360E4
:1018280003610C2242618361C3610362436203F076
:101838008AF800B908BDFFF7F5F8FBE7FC040020BB
:101848000048004010B58AB000230593069307931B
:101858000893099303683F4A934205D004463E4AD9
:10186800934223D00AB010BD3C4B9A6942F480429F
:101878009A619A6902F480420192019A5A6942F483
:1018880000325A615B6903F400330293029B4FF400
:10189800C063059302230693032308930723099340
:1018A80005A94FF0904000F065FADBE72B4BDA69A9
:1018B80042F48022DA61DA6902F480220392039A00
:1018C8005A6942F480225A615B6903F480230493C5
:1018D800049B4FF440630593022306930323089364
:1018E8000723099305A91E4800F044FA1D481E4B1A
:1018F80003600023436083608022C2600361436108
:101908008361C36100F034F9F0B9164B63675C6218
:101918001648174B0360102343600023836080221E
:10192800C260036143618361C36100F021F970B94A
:101938000E4B23675C6200221146272000F0BEF898
:10194800272000F0CBF88DE7FFF76CF8DDE7FFF70D
:1019580069F8EDE7003801400048004000100240F7
:1019680000040048B804002030000240740400203D
:101978001C00024010B504460E4B1A784FF47A73D7
:10198800B3FBF2F30C4A1068B0FBF3F000F0B4F8C4
:1019980068B90F2C01D901200AE0002221464FF036
:1019A800FF3000F08BF8054B1C60002000E00120A0
:1019B80010BD00BF08000020040000200C0000201B
:1019C80008B5074A136843F010031360032000F0BA
:1019D80063F80F20FFF7CEFFFFF7B4FD002008BD26
:1019E80000200240034A1168034B1B780B44136024
:1019F800704700BF0C06002008000020014B186843
:101A0800704700BF0C06002038B50446FFF7F6FF04
:101A18000546B4F1FF3F02D0044B1B781C44FFF786
:101A2800EDFF401BA042FAD338BD00BF08000020DC
:101A3800002808DB0901C9B200F1604000F56140E7
:101A480080F80013704700F00F000901C9B2014B7C
:101A58001954704714ED00E000B500F00700C0F11C
:101A6800070CBCF1040F28BF4FF0040C031D062B14
:101A78000FD9C31E4FF0FF3E0EFA0CF021EA000109
:101A880099400EFA03FE22EA0E0241EA02005DF8CE
:101A980004FB0023EEE70000074AD36823F4E06361
:101AA8001B041B0C000200F4E060034343F0BF6317
:101AB80043F40033D360704700ED00E010B50446EE
:101AC800054BD868C0F30220FFF7C6FF0146204641
:101AD800FFF7AEFF10BD00BF00ED00E0002807DBF8
:101AE80000F01F02400901239340024A42F82030C7
:101AF800704700BF00E100E00138B0F1807F0BD2F1
:101B08004FF0E0235861054AF02182F823100020A5
:101B1800986107221A6170470120704700ED00E0C4
:101B280030B40124056CAC40C56B6C60046863601C
:101B38004368102B05D0036899600368DA6030BCED
:101B4800704703689A600368D960F8E70268054B34
:101B58001344054AA2FB03231B099B000364034BA0
:101B6800C3637047F8FFFDBFCDCCCCCC000002406A
:101B780020B310B50446022380F8213001680A68B2
:101B880022F47F5222F03002436880680343E06801
:101B980003432069034360690343A0690343E06981
:101BA800034313430B602046FFF7D0FF0020A063D8
:101BB800012384F8213084F8200010BD01207047EB
:101BC80038B5044690F82000012831D0012084F867
:101BD800200094F82100012804D0002384F8203044
:101BE800022038BD022084F821000020A063256867
:101BF800286820F0010028602046FFF791FFE36A7B
:101C08005BB12268136843F00E03136022681368FF
:101C180043F0010313600020E3E72268136843F0F0
:101C28000A0313602268136823F004031360EDE7C6
:101C38000220D6E7034690F82120022A06D0042283
:101C48008263002280F820200120704701680A681A
:101C580022F00E020A6001680A6822F001020A6096
:101C6800026CC06B012101FA02F2426083F8211074
:101C7800002083F82000704708B590F82130022B27
:101C880003D004238363012008BD0268136823F08E
:101C98000E0313600268136823F001031360036CDA
:101CA800C16B012202FA03F34B6080F82120002364
:101CB80080F82030436B13B198470020E4E70020F8
:101CC800E2E738B5C36B1A6804682568016C042319
:101CD8008B40134213D015F0040F10D0236813F073
:101CE800200F03D1236823F004032360016CC26B27
:101CF80004238B405360C36A03B1984738BD02235D
:101D08008B4013421AD015F0020F17D0236813F036
:101D1800200F06D1236823F00A032360012380F8EB
:101D28002130016CC26B02238B405360002380F882
:101D38002030836A002BE1D09847DFE708238B40E7
:101D48001342DBD015F0080FD8D0236823F00E0318
:101D58002360026CC16B012303FA02F24A608363B9
:101D680080F82130002380F82030036B002BC5D089
:101D78009847C3E7F0B583B0002362E085685E004A
:101D88000324B44025EA0405CC68B4402C4384609D
:101D9800456825EA0C054C68C4F300149C402C43A4
:101DA80044605FE0DD08083550F8254003F0070C73
:101DB8004FEA8C0C4FF00F0E0EFA0CFE24EA0E0EB2
:101DC8000C6904FA0CF444EA0E0440F8254060E07B
:101DD800032400E0002404FA0EF42C430CF1020C56
:101DE8004F4D45F82C404F4CA568D44325EA0206D0
:101DF8004F6817F4801F01D042EA0506494DAE60CE
:101E0800ED6804EA05064F6817F4001F01D042EA9E
:101E18000506444DEE606D6804EA05064F6817F440
:101E2800003F01D042EA05063E4D6E602D682C4009
:101E38004E6816F4803F01D042EA0504394A14601E
:101E480001330A6832FA03F468D04FF0010C0CFA37
:101E580003FC1CEA0202F3D04C6804F00304013CC2
:101E6800012C8BD94C6804F00304032C0CD0C468F3
:101E78005D004FF0030C0CFA05FC24EA0C0C8C688E
:101E8800AC4044EA0C04C4604C6804F00304022C1F
:101E980088D004684FEA430E4FF0030C0CFA0EFC8E
:101EA80024EA0C0C4C6804F0030404FA0EF444EA27
:101EB8000C0404604C6814F4403FC1D01A4CA56966
:101EC80045F00105A561A46904F001040194019C91
:101ED8004FEA930C0CF10205114C54F8255003F00D
:101EE800030E4FEA8E0E0F2404FA0EF425EA0405B9
:101EF800B0F1904F3FF46EAF0C4CA0420AD004F5FD
:101F08008064A04208D004F58064A0423FF460AF2A
:101F1800052460E701245EE702245CE703B0F0BD16
:101F28000000014000040140001002400004004885
:101F38000AB18161704781627047000008B5054B9E
:101F48005B69034200D108BD024B5861FEF752FDA0
:101F5800F9E700BF0004014010B40468226822F0C9
:101F680007028B68134323F01803CA681A432260D8
:101F780003680A685A6103684A689A615DF8044B05
:101F8800704730B5046801F1010C4FEACC1C54F8D5
:101F98000C3023F0070E936843EA0E0323F018036E
:101FA800D5682B4344F80C300368146803EBC1135D
:101FB800C3F894400368526803EBC113C3F8982030
:101FC80030BD30B404682268D4F8A05322F020024F
:101FD8004B69134323F400628B69134323F4806233
:101FE800CB69134323F0C0620B6A134323F00062EA
:101FF8004B6A134323F040438A6A43EA820323F07F
:1020080000530A6B1A4325F48035CB6A1D432260BE
:102018000368C3F8A05330BC70472DE9F041056848
:102028004B1CDB01EC5824F07044EC500668F35864
:1020380006EBC114D4F8E880D4F8E440D6F8A053ED
:1020480023F0200C536943EA0C0323F4006C9369D2
:1020580043EA0C0323F4806CD36943EA0C0323F0AE
:10206800C06C136A43EA0C0323F0006C536A43EA1A
:102078000C0323F0704C936A43EA0C0323F40033F7
:10208800176BB7F1005F32D023F04003D2F834C0A9
:102098004CEA030323F48023176D47EA030E2EF05E
:1020A800FC7E936C43EA0E0E28F01F07936B03F037
:1020B8001F033B4323F00043D76B3B43BCF1000FA6
:1020C80003D124F48074176C3C43576CB7F5606FE8
:1020D80010D0B7F5F05F0DD024F4F0543C43D76C22
:1020E800042910D8DFE801F00A272D33390043F41A
:1020F8000033C9E7BCF1400FF1D1EDE725F4003515
:10210800D26A45EA42054A1CD20146F802E0026852
:1021180002EBC112C2F8E830036803EBC113C3F83D
:10212800E440036803EBC113C3F8D4700368C3F831
:10213800A053BDE8F08125F48025D26A45EA8205DE
:10214800E1E725F40025D26A45EAC205DBE725F474
:102158008015D26A45EA0215D5E725F40015D26A3A
:1021680045EA4215CFE70000F0B4076807EBC11451
:10217800D4F8E460D4F8B850202A33D8022A03D21D
:10218800012A4BD000220BE0023A012404FA02F2A1
:102198002C4C224233D144F2040422423ED1002284
:1021A800FE24944026EA04061C68944044EA060C7F
:1021B800DC68944044EA0C041E6906FA02FC4CEA06
:1021C800040C5C69944044EA0C0C9C69944044EA11
:1021D8000C04082E2FD0036803EBC113C3F8E440A6
:1021E800F0BC7047B2F5807F18D004D9B2F5007FF3
:1021F80005D00022D4E7402A10D0802A0CD15A6892
:1022080007EBC117C7F8C42002689C6802EBC1122B
:10221800C2F8C8401022C3E70022C1E75A6807EB9A
:10222800C117C7F8BC2002689C6802EBC112C2F84B
:10223800C0400022B4E715F0022FCCD1DB699340EF
:102248001C43C8E741000040052933D8DFE801F006
:102258000B131B232B030268D2F8843343F00103CA
:10226800C2F8843370470268D2F8843343F002031B
:10227800C2F8843370470268D2F8843343F0040309
:10228800C2F8843370470268D2F8843343F00803F5
:10229800C2F8843370470268D2F8843343F01003DD
:1022A800C2F8843370470268D2F8843343F02003BD
:1022B800C2F8843370470000002862D010B582B09D
:1022C8000446022380F8C1300023C0F8C430C0F8A7
:1022D800C830C0F8CC30C0F8D030C0F8D430C0F81E
:1022E800D830836813F0010F12D00268264B9A4247
:1022F80025D021680A6822F44042236903F4404348
:10230800134323F44053626902F440521A430A60AB
:102318002046FEF711F9A36813F0020F08D02168D0
:102328000A6822F44072E36803F4407313430B60B5
:10233800012384F8C130002384F8C0301CE003F581
:102348001C439A6942F000529A619B6903F000535A
:102358000193019BCDE7C3EBC30204EB820200218A
:102368009161D161116251629162C3EBC30204EBC6
:10237800820211630133DBB2052BECD9002002B0D5
:1023880010BD0120704700BF0074014090F8C030B4
:10239800012B32D0012380F8C030022380F8C130ED
:1023A800B1F1FF3F1AD00268D2F8CC3343F00203F0
:1023B800C2F8CC330268D2F8CC3323F00C030B43B9
:1023C800C2F8CC330268D2F8CC3343F00103C2F828
:1023D800CC33012380F8C130002070470268D2F85E
:1023E800CC3323F00203C2F8CC330268D2F8CC33E2
:1023F80043F00103C2F8CC33EBE70220704770B515
:1024080004460D46FFF7FAFA06462368D3F88833E0
:1024180013F4803F0ED1B5F1FF3FF6D0FFF7EEFA87
:10242800801BA84201D8002DEFD1072384F8C130C2
:10243800032005E0012384F8C130002084F8C0009F
:1024480070BD10B5044690F8C100C0B202280BD088
:10245800022384F8C130052907D02046FFF791FDF3
:10246800012384F8C130002010BD11462046FFF733
:1024780073FDF5E770B5044690F8C100C0B20228B4
:1024880028D00E46154694F8C030012B28D00123D9
:1024980084F8C030022384F8C13005291BD02046B7
:1024A800FFF7BBFD2A68C6EBC60304EB83031A6279
:1024B8006A685A62AA689A62EA68DA622A691A63DA
:1024C80031462046FFF7C0FE012384F8C1300020C2
:1024D80084F8C00070BD11462046FFF772FDE1E7A1
:1024E8000220F7E7844690F8C100C0B2022800F045
:1024F800D9809CF8C000012800F0D08030B40120B9
:102508008CF8C00002208CF8C100052909D0013AD6
:10251800072A00F2BC80DFE802F02E43BA7ABABA82
:10252800BA82013A072A1FD8DFE802F0040F1E1406
:102538001E1E1E19DCF800201B68D3619CF8C130F0
:10254800DBB2072B24D1012028E0DCF800201B682F
:102558005362F3E7DCF800201B689362EEE7DCF8CF
:1025680000201B68D362E9E707238CF8C1300023F9
:102578008CF8C030E2E7DCF800201B6802EBC112DF
:10258800C2F89C309CF8C130DBB2072B00F0888081
:1025980001238CF8C13000208CF8C00030BC704793
:1025A800DCF80020186802EBC112C2F8A4005A68CF
:1025B80022B3DCF800404A1CD201A05820F4405055
:1025C800A050DCF80040A0585D682843A0505A6825
:1025D800B2F5005F0AD0B2F5405FD3D1DCF8002035
:1025E8009B6802EBC112C2F8A830CBE7DCF80020E8
:1025F8009B6802EBC112C2F89C30C3E7DCF80020EC
:102608000131C901535823F440535350BAE7DCF859
:1026180000201B6802EBC112C2F8A830B2E7DCF850
:102628000020186802EBC112C2F8AC005A682AB33D
:10263800DCF800404A1CD201A05820F44040A050C9
:10264800DCF80040A0585D6840EA8500A0505A6850
:10265800B2F5005F0AD0B2F5405F93D1DCF80020F4
:102668009B6802EBC112C2F8A8308BE7DCF80020A7
:102678009B6802EBC112C2F89C3083E7DCF80020AB
:102688000131C901535823F4404353507AE70723D3
:102698008CF8C13000238CF8C03073E702207047F3
:1026A80001207BE7704738B5044690F8C100C0B2F6
:1026B800022811D094F8C00001280ED0012584F812
:1026C800C050022084F8C1002046FFF74DFD84F871
:1026D800C150002084F8C00038BD0220FCE790F803
:1026E800C030012B15D010B4012280F8C02002237D
:1026F80080F8C1300468D4F898330B43C4F8983391
:1027080080F8C120002380F8C03018465DF8044BDB
:10271800704702207047002859D010B5044690F839
:102728004130002B43D0242384F8413022681368B9
:1027380023F0010313606368226823F07063136158
:102748002268936823F400439360E368012B33D035
:10275800A368226843F404439360E368022B31D0F2
:102768002268536843F0007343F4004353602268BF
:10277800D36823F40043D360236962691343A169D2
:10278800226843EA0123D360E369216A22680B4384
:1027980013602268136843F001031360002060642B
:1027A800202384F84130206384F8420010BD80F86B
:1027B8004030FDF7BFFFB6E7A368226843F4004343
:1027C8009360CAE723684FF400625A60C8E70120A3
:1027D8007047034690F84120D2B2202A23D190F8BE
:1027E8004020012A21D0012280F84020242280F8AC
:1027F80041200068026822F001020260186802683D
:1028080022F4805202601868026811430160196856
:102818000A6842F001020A60202283F84120002061
:1028280083F8400070470220704702207047034633
:1028380090F84120D2B2202A21D190F84020012AD4
:102848001FD0012280F84020242280F8412000680F
:10285800026822F0010202601868026822F47062BD
:1028680042EA0122026019680A6842F001020A601D
:10287800202283F84120002083F84000704702207E
:102888007047022070470000002800F0FF8270B5F2
:1028980082B00446036813F0010F3BD0B44B5B6869
:1028A80003F00C03042B1ED0B14B5B6803F00C0340
:1028B800082B13D06368B3F5803F68D0002B40F035
:1028C800928003F1804303F504331A6822F48032BE
:1028D8001A601A6822F480221A605DE0A44B5B68D3
:1028E80013F4803FE6D04FF4003393FAA3F3A04BE0
:1028F80019684FF4003393FAA3F3B3FA83F303F0A0
:102908001F03012202FA03F30B4203D06368002B72
:1029180000F0BE82236813F0020F00F0C480944BCD
:102928005B6813F00C0F00F09C80914B5B6803F020
:102938000C03082B00F08F802369002B00F0F08037
:10294800012292FAA2F3B3FA83F303F1845303F555
:1029580084139B001A60FFF751F80546022393FA87
:10296800A3F3834B1968022393FAA3F3B3FA83F30F
:1029780003F01F03012202FA03F30B4240F0C28066
:10298800FFF73CF8401B0228E8D9032089E2784A7F
:10299800136843F480331360754AD36A23F00F0336
:1029A800A1680B43D3626368002B36D0FFF726F883
:1029B80005464FF4003393FAA3F36D4B19684FF4AF
:1029C800003393FAA3F3B3FA83F303F01F0301224E
:1029D80002FA03F30B429DD1FFF710F8401B64285D
:1029E800E7D903205DE2B3F5A02F09D0604B1A6840
:1029F80022F480321A601A6822F480221A60CBE727
:102A080003F18043A3F53C331A6842F480221A602C
:102A18001A6842F480321A60BEE7FEF7EFFF0546F7
:102A28004FF4003393FAA3F3514B19684FF4003372
:102A380093FAA3F3B3FA83F303F01F03012202FA14
:102A480003F30B423FF466AFFEF7D8FF401B642840
:102A5800E6D9032025E2464B5B6813F4803F7FF4F8
:102A68006BAF022393FAA3F3414B1968022393FA3D
:102A7800A3F3B3FA83F303F01F03012202FA03F36B
:102A88000B4203D02369934240F00482384803681C
:102A980023F0F8036169F82292FAA2F2B2FA82F2FC
:102AA80091400B430360236813F0080F00F08C80FB
:102AB800A369002B60D0012191FAA1F2B2FA82F247
:102AC8002C4B13449B001960FEF798FF0546022320
:102AD80093FAA3F293FAA3F293FAA3F2244A516A5F
:102AE80093FAA3F3B3FA83F303F01F03012202FA64
:102AF80003F30B4268D1FEF781FF401B0228E6D999
:102B08000320CEE11A48036823F0F8036169F8222C
:102B180092FAA2F2B2FA82F291400B430360C2E742
:102B2800012393FAA3F3B3FA83F303F1845303F570
:102B380084139B0000221A60FEF760FF05460223FB
:102B480093FAA3F30A4B1968022393FAA3F3B3FA8F
:102B580083F303F01F03012202FA03F30B42A2D00E
:102B6800FEF74CFF401B0228E9D9032099E100BF7A
:102B78000010024020819010012292FAA2F2B2FACB
:102B880082F2B74B13449B0000221A60FEF736FF0F
:102B98000546022393FAA3F293FAA3F293FAA3F257
:102BA800B04A516A93FAA3F3B3FA83F303F01F030D
:102BB800012202FA03F30B4206D0FEF71FFF401B67
:102BC8000228E6D903206CE1236813F0040F00F013
:102BD800A980A44BDB6913F0805F20D1A14BDA698F
:102BE80042F08052DA61DB6903F080530193019B64
:102BF80001259D4B1B6813F4807F12D0E368012BDD
:102C080023D073BB03F1804303F504331A6A22F01F
:102C180001021A621A6A22F004021A621AE00025F6
:102C2800E7E7914A136843F480731360FEF7E6FE02
:102C380006468D4B1B6813F4807FDFD1FEF7DEFE5E
:102C4800801B6428F5D903202BE1864A136A43F0D8
:102C580001031362E368002B3CD0FEF7CFFE064663
:102C68002EE0052B09D07F4B1A6A22F001021A6266
:102C78001A6A22F004021A62ECE77A4B1A6A42F0E6
:102C880004021A621A6A42F001021A62E2E7022397
:102C980093FAA3F3734B596A022393FAA3F3B3FA93
:102CA80083F303F01F03012202FA03F3194238D118
:102CB800FEF7A4FE801B41F28833984200F2EC80B4
:102CC800022393FAA3F293FAA3F3002BDFD0654B08
:102CD800196AE1E7FEF792FE064618E0022393FA26
:102CE800A3F3604B596A022393FAA3F3B3FA83F36D
:102CF80003F01F03012202FA03F3194211D0FEF771
:102D08007DFE801B41F28833984200F2C78002237F
:102D180093FAA3F293FAA3F3002BDFD0514B196A6D
:102D2800E1E7B5BBE369002B00F0BA804D4A526871
:102D380002F00C02082A00F09980022B2FD04FF0E5
:102D4800807393FAA3F3B3FA83F303F1845303F57F
:102D580084139B0000221A60FEF750FE04464FF0D1
:102D6800007393FAA3F33F4B19684FF0007393FA7B
:102D7800A3F3B3FA83F303F01F03012202FA03F368
:102D880019426BD0FEF73AFE001B0228E7D9032050
:102D980087E0344AD36923F08053D361C2E74FF008
:102DA800807393FAA3F3B3FA83F303F1845303F51F
:102DB80084139B0000221A60FEF720FE05464FF0A0
:102DC800007393FAA3F3274B19684FF0007393FA33
:102DD800A3F3B3FA83F303F01F03012202FA03F308
:102DE800194206D0FEF70AFE401B0228E7D9032045
:102DF80057E01C494B6823F47413626A206A024343
:102E080013434B604FF0807393FAA3F3B3FA83F341
:102E180003F1845303F584139B0001221A60FEF723
:102E2800EDFD04464FF0007393FAA3F30D4B1968B8
:102E38004FF0007393FAA3F3B3FA83F303F01F037D
:102E4800012202FA03F3194206D1FEF7D7FD001B4F
:102E58000228E7D9032024E0002022E0002020E017
:102E6800208190100010024000700040012B1AD001
:102E7800104B5B6803F48031226A914215D103F448
:102E88007013626A934212D100200AE00120704751
:102E9800012006E0012004E0032002E0032000E016
:102EA800002002B070BD0120FBE70120F9E70120F6
:102EB800F7E700BF0010024070B586B00D46164611
:102EC8000223029303230493002303934FF4807295
:102ED800019205930B4C636943F4003363616369A2
:102EE80003F400330093009B01A94FF09040FEF7D4
:102EF80041FF636823F0EE4335432B43636006B01C
:102F080070BD00BF00100240184B5A6802F00C0355
:102F1800042B26D0082B26D102F470114FF470131D
:102F280093FAA3F3B3FA83F321FA03F31049C85CC5
:102F38000E4BDB6A03F00F030F2191FAA1F1B1FAEE
:102F480081F1CB400B49C95C12F4803F05D00A4B94
:102F5800B3FBF1F303FB00F07047084B03FB00F0F1
:102F68007047054870470648704700BF0010024088
:102F7800044F0008F44E0008001BB70000093D008C
:102F880000127A00002800F0BE8070B50D46044695
:102F9800614B1B6803F007038B420BD25E4A136830
:102FA80023F007030B431360136803F007038B42F6
:102FB80040F0AB80236813F0020F06D0574A5368DD
:102FC80023F0F003A1680B435360236813F0010F4B
:102FD8005AD06368012B2DD0022B40D0022292FADE
:102FE800A2F24E4A1068022292FAA2F2B2FA82F2D1
:102FF80002F01F02012101FA02F2104200F087805C
:1030080046494A6822F0030213434B60FEF7F6FC78
:103018000646424B5B6803F00C036268B3EB820F11
:1030280032D0FEF7EBFC801B41F288339842F0D98E
:10303800032067E04FF4003292FAA2F2374A106890
:103048004FF4003292FAA2F2B2FA82F202F01F02B0
:10305800012101FA02F20242D2D1012052E04FF0DE
:10306800007292FAA2F22D4A10684FF0007292FA9A
:10307800A2F2B2FA82F202F01F02012101FA02F270
:103088001042BDD101203DE0234B1B6803F007032C
:10309800AB420AD9204A136823F007032B43136075
:1030A800136803F00703AB4233D1236813F0040F0E
:1030B80006D01A4A536823F4E063E1680B4353606F
:1030C800236813F0080F07D0144A536823F4605399
:1030D800216943EAC1035360FFF716FF0F4B5B6892
:1030E80003F0F003F02292FAA2F2B2FA82F2D3408D
:1030F8000B4AD35CD8400B4B18600B4B1868FEF793
:1031080039FC002070BD012070470120FAE701203A
:10311800F8E70120F6E700BF002002400010024057
:10312800E44E0008040000200C000020014B186841
:10313800704700BF0400002008B5FFF7F7FF074BF2
:103148005B6803F4E0634FF4E06292FAA2F2B2FA29
:1031580082F2D340024AD35CD84008BD0010024036
:10316800DC4E000808B5FFF7E1FF074B5B6803F486
:1031780060534FF4605292FAA2F2B2FA82F2D3404C
:10318800024AD35CD84008BD00100240DC4E00085B
:10319800F0B583B00446036813F4803F44D0624B13
:1031A800DB6913F0805F78D15F4BDA6942F08052B7
:1031B800DA61DB6903F080530193019B01255B4BC6
:1031C8001B6813F4807F6AD0574B1B6A13F4407353
:1031D80021D0626802F440729A421CD05248016AB7
:1031E80021F440764FF4803393FAA3F2B2FA82F2D4
:1031F8004F4F3A4492004FF0010CC2F800C093FAC6
:10320800A3F3B3FA83F33B449B0000221A600662DF
:1032180011F0010F57D1444A136A23F440736168CF
:103228000B431362002D74D1236813F0010F06D0ED
:103238003D4A136B23F00303A1680B431363236810
:1032480013F0200F06D0384A136B23F01003E168FF
:103258000B431363236813F0800F06D0324AD36AF6
:1032680023F4F87321690B43D362236813F4805F56
:1032780006D02D4A136B23F4807361690B431363E3
:10328800236813F4804F4BD0274A136B23F48053E1
:10329800A1690B431363002043E000258FE7234A0D
:1032A800136843F480731360FEF7A8FB06461F4BB0
:1032B8001B6813F4807F87D1FEF7A0FB801B64286E
:1032C800F5D903202DE0FEF799FB064617E0022307
:1032D80093FAA3F3144B596A022393FAA3F3B3FAAC
:1032E80083F303F01F03012202FA03F30B4292D186
:1032F800FEF784FB801B41F2883398420ED80223E4
:1033080093FAA3F293FAA3F3002BE0D0064B196AC1
:10331800E2E7D36923F08053D36185E7032000E017
:10332800002003B0F0BD00BF001002400070004054
:10333800008190102DE9F04782B00546884617466F
:103348001E46FEF75BFB0A9B1B1A03EB0609FEF7FA
:1033580055FB8246284B1B68C3F3CB3309FB03F3A9
:1033680001932B689C6838EA04040CBF01230023EE
:10337800BB423DD0B6F1FF3FF3D0FEF73FFBA0EBD9
:103388000A00484507D2019A02B14A46019B013B0F
:1033980001939146E5E72A68536823F0E0035360F8
:1033A8006B68B3F5827F0BD0AB6AB3F5005F14D0BE
:1033B800012385F85D30002385F85C30032018E090
:1033C800AB68B3F5004F02D0B3F5806FECD12A6833
:1033D800136823F040031360E6E72A68136823F4B0
:1033E800005313602A68136843F400531360DFE73F
:1033F800002002B0BDE8F087040000202DE9F04766
:1034080082B006460C4615461F4600238DF8033049
:10341800FEF7F4FA0A9B1B1A03EB0708FEF7EEFA0D
:103428008146D6F800A0304B1B6803EB8303C3EB3F
:10343800C3031B0D08FB03F3019302E0B7F1FF3F41
:1034480012D133689B6803EA040CAC4547D0B4F545
:10345800C06FF3D1002DF1D19AF80C30DBB28DF8A2
:1034680003309DF80330E9E7FEF7C8FAA0EB09003E
:10347800404507D2019A02B14246019B013B0193A4
:103488009046DEE73268536823F0E00353607368C0
:10349800B3F5827F0BD0B36AB3F5005F14D0012374
:1034A80086F85D30002386F85C30032018E0B368A6
:1034B800B3F5004F02D0B3F5806FECD132681368D2
:1034C80023F040031360E6E73268136823F40053DF
:1034D80013603268136843F400531360DFE7002079
:1034E80002B0BDE8F08700BF0400002070B582B0CC
:1034F80004460D46164600920B4600224FF4C05172
:10350800FFF77CFFB0B900962B46002280212046A9
:10351800FFF710FFA8B900962B4600224FF4C061B0
:103528002046FFF76BFF50B1236E43F0200323665C
:10353800032004E0236E43F020032366032002B037
:1035480070BD236E43F0200323660320F7E70028AD
:103558006AD010B50446436A33B94368B3F5827F2D
:1035680005D00023C36102E0002303614361002307
:10357800A36294F85D30002B4DD0022384F85D30AF
:103588002268136823F040031360E368B3F5E06F23
:1035980047D90022B3F5706F04D0B3F5E06F01D0BE
:1035A8000023A362636803F48273A16801F40441F1
:1035B8000B43216901F002010B43616901F001012C
:1035C8000B43A16901F400710B43E16901F0380173
:1035D8000B43216A01F080010B43A16A01F40051F9
:1035E80020680B430360638B03F00403616A01F0F6
:1035F80010010B43616B01F008010B43E16801F412
:1036080070610B4321681A434A6000202066012339
:1036180084F85D3010BD84F85C302046FDF75EFF0D
:10362800ABE74FF48052B5E7012070472DE9F0432E
:1036380083B01D4690F85C30012B00F0F4800446FE
:1036480088469146012380F85C30FEF7D7F9074693
:1036580094F85D60F6B2012E40F0DD80B8F1000FFD
:1036680000F0DA80B9F1000F00F0D680032384F867
:103678005D3000232366C4F83880A4F83C90A4F891
:103688003E902364A4F84430A4F846302365E364EC
:10369800A368B3F5004F1ED023681A6812F0400FD4
:1036A80003D11A6842F040021A60E368B3F5E06F8C
:1036B80044D9636813B1B9F1010F20D1A26B236813
:1036C8001288DA60A36B0233A363E38F9BB2013BDA
:1036D8009BB2E38713E02268136823F0400313606A
:1036E8002268136843F480431360D5E7FEF786F930
:1036F800C01BA84202D3B5F1FF3F1AD1CDB1E38F69
:103708009BB2002B6FD023689A6812F0020FEDD09D
:10371800A26B1288DA60A36B0233A363B4F83EC0CD
:103728001FFA8CFC0CF1FF3C1FFA8CFCA4F83EC07D
:10373800E5E7012384F85D3003266DE0636813B183
:10374800B9F1010F32D1E38F9BB2012B0CD9A26BD7
:1037580023681288DA60A36B0233A363E38F9BB2FA
:10376800023B9BB2E38721E0A26B236812781A73AD
:10377800A36B0133A363E38F9BB2013B9BB2E38747
:1037880014E0A36B1B781373A36B0133A363E38F5C
:103798009BB2013B9BB2E38708E0FEF72FF9C01B01
:1037A800A84202D3B5F1FF3F18D1BDB1E38F9BB258
:1037B800CBB12268936813F0020FEED0E38F9BB26F
:1037C800012BDED9A36B1B88D360A36B0233A363E1
:1037D800E38F9BB2023B9BB2E387E7E7012384F8C0
:1037E8005D30032618E03A4629462046FFF77EFE5C
:1037F80008B120232366A36833B901932368DA68E4
:1038080001929B680193019B236E2BB9012384F8D5
:103818005D30002600E00226002384F85C30304644
:1038280003B0BDE8F0830226F9E72DE9F8431F4607
:10383800089D90F85C30012B00F06B8104468846A7
:103848009146012380F85C30FEF7D8F8064694F8D4
:103858005D30DBB26268012B0AD0B2F5827F40F09E
:103868004681A268002A40F04881042B40F0478135
:10387800B8F1000F00F04581B9F1000F00F0438165
:10388800002F00F0428194F85D30DBB2042B02D0A7
:10389800052384F85D3000232366C4F84090A4F81B
:1038A8004670A4F84470C4F83880E787A787E364B3
:1038B8002365E368B3F5E06F01D8012F23D92268A7
:1038C800536823F48053536023681A6812F0400F3A
:1038D80003D11A6842F040021A60E368B3F5E06F5A
:1038E8005CD963680BB1012F0BD1A26B23681288D6
:1038F800DA60A36B0233A363E38F9BB2013B9BB2F5
:10390800E387012730E02268536843F4805353600B
:10391800DAE7A26B1288DA60A36B0233A363E38F42
:103928009BB2013B9BB2E387002723689A6812F099
:10393800010F11D0B4F8462092B26AB1DA68236C4C
:103948001A80236C02332364B4F846309BB2013BDF
:103958009BB2A4F846300127FEF750F8831BAB4210
:1039680002D3B5F1FF3F14D1E38F9BB22BB9B4F862
:1039780046309BB2002B00F0AB8023689A6812F0A7
:10398800020FD2D0E28F92B2002ACED0002FCCD034
:10399800BFE7012384F85D300320A9E063680BB119
:1039A800012F0FD1E38F9BB2012B0DD9A26B236896
:1039B8001288DA60A36B0233A363E38F9BB2023BE6
:1039C8009BB2E387012749E0A26B236812781A7338
:1039D800A36B0133A363E38F9BB2013B9BB2E387E5
:1039E800F0E7E28F92B2012A0CD9A26B1288DA6052
:1039F800A36B0233A363E38F9BB2023B9BB2E387C3
:103A080000273DE0A26B12781A73A36B0133A363FE
:103A1800E38F9BB2013B9BB2E387002730E022682B
:103A2800536843F48053536001270DE0226C1B7BDD
:103A38001370236C01332364B4F846309BB2013B06
:103A48009BB2A4F846300127FDF7D8FF801BA84297
:103A580002D3B5F1FF3F36D1002D34D0E38F9BB2AE
:103A680023B9B4F846309BB2002B31D023689A684A
:103A780012F0020F04D0E28F92B20AB1002FB0D137
:103A880023689A6812F0010FDED0B4F8462092B28B
:103A9800002AD9D0B4F8462092B2012AC6D9DA68E9
:103AA800236C1A80236C02332364B4F846309BB22B
:103AB800023B9BB2A4F84630B4F846309BB2012BC7
:103AC800ADD90127C0E7012384F85D3003200FE05A
:103AD800324629462046FFF709FD10B12023236608
:103AE8000120236E9BB9012384F85D3000E0022099
:103AF800002384F85C30BDE8F8830220F8E7022050
:103B0800F6E70120F4E70120F2E70120F0E70120C1
:103B1800EEE70220EFE710B4036A046A24F0010418
:103B28000462846924F0F00C4CEA021223F00A03C0
:103B38000B43826103625DF8044B704710B4036A5B
:103B480023F0100303628469036A24F4704C4CEA7E
:103B5800023223F0A00343EA0113826103625DF895
:103B6800044B7047836823F070030B4343F007034B
:103B7800836070470368196A41F21112114208D133
:103B8800196A40F24442114203D11A6822F0010234
:103B98001A60012380F83D300020704790F83D30CE
:103BA800DBB2012B2AD1022380F83D300268D368AA
:103BB80043F00103D3600368134A934210D0B3F172
:103BC800804F0DD0A2F59432934209D002F59E326F
:103BD800934205D01A6842F001021A60002070472B
:103BE80099680A4A0A40062A0AD0B2F5803F09D0E5
:103BF8001A6842F001021A600020704701207047DD
:103C08000020704700207047002C01400700010089
:103C1800704770477047704710B5044603681A69C3
:103C280012F0020F11D0DA6812F0020F0DD06FF007
:103C380002021A610123037703689B6913F0030FDB
:103C480079D0FFF7E6FF0023237723681A6912F07B
:103C5800040F12D0DA6812F0040F0ED06FF00402CD
:103C68001A610223237723689B6913F4407F68D085
:103C78002046FFF7CEFF0023237723681A6912F046
:103C8800080F12D0DA6812F0080F0ED06FF0080291
:103C98001A61042323772368DB6913F0030F57D0D5
:103CA8002046FFF7B6FF0023237723681A6912F02E
:103CB800100F12D0DA6812F0100F0ED06FF0100249
:103CC8001A61082323772368DB6913F4407F46D001
:103CD8002046FFF79EFF0023237723681A6912F016
:103CE800010F03D0DA6812F0010F3FD123681A6977
:103CF80012F0800F03D0DA6812F0800F3DD12368EC
:103D08001A6912F4807F03D0DA6812F0800F3BD171
:103D180023681A6912F0400F03D0DA6812F0400FD6
:103D280039D123681A6912F0200F03D0DA6812F02B
:103D3800200F37D110BDFFF76BFF2046FFF76AFF52
:103D480081E72046FFF764FF2046FFF763FF92E70D
:103D58002046FFF75DFF2046FFF75CFFA3E72046FC
:103D6800FFF756FF2046FFF755FFB4E76FF0010253
:103D78001A612046FCF794FDB8E76FF080021A61DB
:103D8800204600F05AF9BAE76FF480721A612046AB
:103D980000F054F9BCE76FF040021A612046FFF7C3
:103DA8003AFFBEE76FF020021A61204600F044F99E
:103DB800C0E700000368224A904206D0B0F1804F65
:103DC80003D0A2F59432904203D123F070034A68DD
:103DD80013431B4A904212D0B0F1804F0FD0A2F586
:103DE800943290420BD002F59E32904207D002F5F1
:103DF8008062904203D002F58062904203D123F49E
:103E08004073CA68134323F080034A69134303606D
:103E18008B68C3620B688362094B98420BD003F529
:103E2800A053984207D003F58063984203D003F566
:103E38008063984201D10B69036301234361704792
:103E4800002C014060B310B5044690F83D3013B320
:103E5800022384F83D30214651F8040BFFF7AAFFEE
:103E6800012384F8483084F83E3084F83F3084F8E1
:103E7800403084F8413084F8423084F8433084F884
:103E8800443084F8453084F8463084F8473084F864
:103E98003D30002010BD80F83C30FDF745FCD7E7E9
:103EA8000120704710B4846824F47F4C42EA03224E
:103EB8000A4342EA0C0282605DF8044B7047000036
:103EC80090F83C30012B76D010B50446012380F8D9
:103ED8003C30022380F83D3002689068374B03403D
:103EE80093600B68602B4CD029D8402B54D00CD948
:103EF800502B22D1CA6849682068FFF70CFE502170
:103F08002068FFF72FFE002005E0202B0DD009D9EF
:103F1800302B0AD00120012384F83D30002384F897
:103F28003C3010BD0BB1102B05D119462068FFF7A6
:103F380019FE0020EFE70120EDE70120EBE7B3F5DC
:103F4800805F34D0B3F5005F0CD1CB684A688968CC
:103F58002068FFF7A7FF2268936843F480439360C3
:103F68000020D8E7702B24D1CB684A68896820687C
:103F7800FFF798FF2268936843F077039360002067
:103F8800C9E7CA6849682068FFF7D8FD602120683A
:103F9800FFF7E8FD0020BEE7CA6849682068FFF718
:103FA800BAFD40212068FFF7DDFD0020B3E70020BF
:103FB800B1E70120AFE70220704700BF8800FEFF8D
:103FC80090F83C20012A33D030B40346012280F80F
:103FD8003C20022280F83D20006842688468154D24
:103FE800A84220D022F070020D682A4342601A6865
:103FF800104882420AD0B2F1804F07D0A0F5943021
:10400800824203D000F59E30824204D124F080041D
:10401800896821439160012283F83D20002083F8BC
:104028003C0030BC704722F470024D682A43D9E73F
:1040380002207047002C01407047704770470268A3
:1040480052E8003F23F0C00342E800310029F6D1CE
:104058002023C3677047026852E8003F23F4907337
:1040680042E800310029F6D1026802F1080353E85A
:10407800003F23F00103083242E800310029F3D160
:10408800036E012B06D02023C0F88030002303667E
:1040980083667047026852E8003F23F0100342E845
:1040A80000310029F6D1EEE71346C26F202A3BD132
:1040B80010B50446002939D0002B39D0C164A0F8C6
:1040C8005030A0F852300022C0F884202122C26764
:1040D800026FC2B117499162026F1749D162026F2C
:1040E80016491163026F0021516302682832C16CBE
:1040F800006FFDF765FD30B11023C4F8843020232C
:10410800E36701200FE0236840221A62226802F167
:10411800080353E8003F43F08003083242E80031C7
:104128000029F3D1002010BD022070470120FAE7D2
:104138000120F8E74B410008B3410008C1410008DD
:10414800704708B5416A8369202B18D00023A1F86D
:1041580052300A6802F1080353E8003F23F0800355
:10416800083242E800300028F3D10A6852E8003FDC
:1041780043F0400342E800300028F6D108BD084665
:10418800FFF7DEFFFAE708B5026852E8003F23F0C0
:10419800400342E800310029F6D12023C3670023F9
:1041A800C366FFF7CDFF08BD704708B5406AFFF743
:1041B800FBFF08BD7047704738B5446AE26FD4F812
:1041C800805023689B6813F0800F01D0212A10D0FB
:1041D80023689B6813F0400F01D0222D10D0D4F82B
:1041E800843043F01003C4F884302046FFF7E3FF1F
:1041F80038BD0023A4F852302046FFF720FFE7E738
:104208000023A4F85A302046FFF725FFE7E708B552
:10421800406A0023A0F85A30A0F85230FFF7CBFFCD
:1042280008BD704770B504460268D3691168906884
:1042380040F60F0C13EA0C0F0AD113F0200F0DD023
:1042480011F0200F0AD0A36E0BB3204698471EE04A
:1042580010F001051CD1AB4E314219D1256E012D4C
:1042680000F0A48013F4801F03D010F4800F40F0F6
:10427800368113F0800F03D011F0800F40F03681A3
:1042880013F0400F03D011F0400F40F0368170BD9D
:1042980013F0010F09D011F4807F06D001201062BD
:1042A800D4F884200243C4F8842013F0020F09D004
:1042B80045B1226802201062D4F8842042F004023A
:1042C800C4F8842013F0040F09D045B122680420F3
:1042D8001062D4F8842042F00202C4F8842013F05B
:1042E800080F0BD011F0200F00D13DB12268082033
:1042F8001062D4F884200243C4F8842013F4006FB9
:104308000CD011F0806F09D022684FF40060106261
:10431800D4F8842042F02002C4F88420D4F8842001
:10432800002AB4D013F0200F06D011F0200F03D0CC
:10433800A36E0BB120469847D4F8842023689B6865
:1043480013F0400F02D112F0280F28D02046FFF7B3
:1043580082FE23689B6813F0400F1CD0226802F18C
:10436800080353E8003F23F04003083242E80031D5
:104378000029F3D1636F53B1634A5A63606FFDF745
:104388007BFC002883D0606F436B98477FE720460B
:10439800FFF711FF7BE72046FFF70DFF77E7204681
:1043A800FFF709FF0023C4F8843070E713F0100FFB
:1043B8003FF458AF11F0100F3FF454AF10231362BD
:1043C80023689B6813F0400F4FD0626F13685B68D7
:1043D8009BB2002B3FF45BAFB4F8581099427FF6BC
:1043E80056AFA4F85A309369202B31D0226852E88E
:1043F800003F23F4807342E800310029F6D1226897
:1044080002F1080353E8003F23F00103083242E8B1
:1044180000310029F3D1226802F1080353E8003F74
:1044280023F04003083242E800310029F3D1202369
:10443800C4F8803000232366226852E8003F23F046
:10444800100342E800310029F6D1606FFDF7F2FB56
:1044580002236366B4F85810B4F85A309BB2C91AEC
:1044680089B22046FFF7DDFE11E7B4F85810B4F81A
:104478005A309BB2C91A89B2B4F85A309BB2002B91
:104488003FF405AF00293FF402AF226852E8003F2D
:1044980023F4907342E800300028F6D1226802F134
:1044A800080353E8003F23F00103083242E80030D4
:1044B8000028F3D12023C4F8803000232366A366A4
:1044C800226852E8003F23F0100342E80030002839
:1044D800F6D1022363662046FFF7A3FED7E64FF422
:1044E80080131362204600F0D3FAD0E6E36E002B67
:1044F8003FF4CDAE20469847C9E62046FFF743FE75
:10450800C5E600BF200100041742000808B5406A4C
:1045180001234366036E012B02D0FFF74BFE08BD53
:10452800B0F858104908FFF77CFEF8E708B50346CD
:10453800406A9B69202B29D00023A0F85A300268D2
:1045480052E8003F23F4807342E800310029F6D195
:10455800026802F1080353E8003F23F00103083220
:1045680042E800310029F3D1026802F1080353E858
:10457800003F23F04003083242E800310029F3D11C
:104588002023C0F88030036E012B07D00023436638
:10459800036E012B0CD0FCF749F908BD026852E8FC
:1045A800003F23F0100342E800310029F6D1EDE77F
:1045B800B0F85810FFF735FEEFE7000010B50446D5
:1045C80083680269134342691343C269134301684C
:1045D80008684E4A02401A430A602268536823F466
:1045E8004053E1680B435360A269236A1A43216868
:1045F8008B6823F4306313438B602368444A9342E7
:1046080014D0444A934227D002F5806293421FD0C7
:104618001023E069B0F5004F20D0082B70D8DFE8F0
:1046280003F04A60486F636F6F6F66003A4B1B6B0D
:1046380003F00303032B09D8DFE803F00204060C98
:104648000023E6E70423E4E70823E2E71023E0E792
:104658000023DEE70223DCE70023DAE7082B49D84A
:10466800DFE803F0051F2548224848480900FEF7FF
:1046780063FD002840D06268530803EB4003B3FB96
:10468800F2F3A3F110014FF6EF72914236D89AB2C5
:1046980022F00F02C3F3420313432268D3600020C1
:1046A8001BE0FEF75FFDE4E7FEF72EFCE1E71B48A1
:1046B800E1E71A4802E0FEF73FFD18B3636800EB34
:1046C8005300B0FBF3F0A0F110024FF6EF739A42DB
:1046D8001AD8236880B2D86000200023A366E36656
:1046E80010BDFEF73FFDE8E7FEF70EFCE5E74FF4E7
:1046F8000040E3E70120F0E70020EEE70120ECE7C7
:104708000120EAE70020E8E70120E6E7F369FFEF88
:1047180000380140004400400010024000127A00B6
:10472800436A13F0010F06D00268536823F400337C
:10473800816A0B435360436A13F0020F06D0026884
:10474800536823F48033C16A0B435360436A13F000
:10475800040F06D00268536823F48023016B0B43CF
:104768005360436A13F0080F06D00268536823F4B5
:104778000043416B0B435360436A13F0100F06D09C
:104788000268936823F48053816B0B439360436AF8
:1047980013F0200F06D00268936823F40053C16B0E
:1047A8000B439360436A13F0400F0AD002685368C2
:1047B80023F48013016C0B435360036CB3F5801F23
:1047C8000BD0436A13F0800F06D00268536823F4B5
:1047D8000023816C0B43536070470268536823F4CD
:1047E800C003416C0B435360EBE72DE9F8430546E2
:1047F8000F4616469946DDF820802B68DC6937EAB3
:1048080004040CBF01240024B44232D1B8F1FF3FA4
:10481800F3D0FDF7F3F8A0EB090040452CD8B8F128
:10482800000F2BD02B681A6812F0040FE5D0DA6954
:1048380012F0080F11D1DA6912F4006FDDD04FF4CD
:1048480000621A622846FFF706FC2023C5F8843068
:10485800002385F8783003200CE008241C622846E1
:10486800FFF7F9FBC5F88440002385F8783001206C
:1048780000E00020BDE8F8830320FBE70320F9E708
:1048880030B583B004460023C0F88430FDF7B6F88D
:1048980005462268126812F0080F0FD123681B68BA
:1048A80013F0040F26D12023E367C4F880300020DA
:1048B8002066606684F8780003B030BD6FF07E43F0
:1048C8000093034600224FF400112046FFF78DFFA6
:1048D8000028E3D0226852E8003F23F0800342E832
:1048E80000310029F6D12023E367002384F87830CB
:1048F8000320E1E76FF07E4300932B4600224FF43C
:1049080080012046FFF771FF0028CCD0226852E8CA
:10491800003F23F4907342E800310029F6D1226861
:1049280002F1080353E8003F23F00103083242E88C
:1049380000310029F3D12023C4F88030002384F803
:1049480078300320B8E768B310B50446C36F03B3E3
:104958002423E3672268136823F0010313602046C9
:10496800FFF72CFE012813D0636ABBB9226853688D
:1049780023F4904353602268936823F02A039360DA
:104988002268136843F0010313602046FFF778FF9D
:1049980010BD80F87830FCF755FFD9E72046FFF7BF
:1049A800BFFEE3E70120704710B504461346416592
:1049B800A0F858200022C0F884202222C0F88020C5
:1049C800426F8AB11F499162426F1F49D162426F9B
:1049D8001E491163426F002151630168426D243101
:1049E800406FFDF7EDF820BB236943B1226852E818
:1049F800003F43F4807342E800310029F6D1226871
:104A080002F1080353E8003F43F00103083242E88B
:104A180000310029F3D1226802F1080353E8003F6E
:104A280043F04003083242E800310029F3D1002066
:104A380010BD1023C4F884302023C4F8803001202E
:104A4800F6E700BF3545000815450008C1410008D4
:104A580038B5D0F88030202B14D1A9B1B2B10023D9
:104A6800036603685B6813F4000F08D0046854E811
:104A7800003F43F0806344E80035002DF6D1FFF78E
:104A880093FF00E0022038BD0120FCE70120FAE78F
:104A98007047000008B50349034800F047F8034B86
:104AA800187008BD10060020100000201406002011
:104AB80008B5FCF77BFA08BD08B5FCF72FFB08BD65
:104AC80008B5FCF735FB08BD08B5FCF777FB08BD52
:104AD80008B5FCF7CBFB08BD134B5B7ADBB2012BA7
:104AE80001D90120704710B404460F4B93F809C050
:104AF8005FFA8CFC002003F80C0093F809C003EB64
:104B08008C0CCCF804405C7A1C4422725A7A541CEF
:104B1800E4B25C7230320A703A234B702F238B70E8
:104B2800C8705DF8044B70471806002008B50022CD
:104B3800FFF7D2FF08BD0000DFF834D0FCF77AFD9C
:104B48000C480D490D4A002302E0D458C4500433E0
:104B5800C4188C42F9D30A4A0A4C002301E01360B6
:104B68000432A242FBD300F019F8FBF7AFFFFEE7CF
:104B7800003000200000002024000020244F0008FE
:104B88002800002024060020FEE702440346934242
:104B980000D1704703F8011BF9E7000070B50D4D0F
:104BA8000D4C641BA4100026A64209D10B4D0C4CD9
:104BB80000F084F9641BA4100026A64205D170BD3C
:104BC80055F8043B98470136EEE755F8043B9847FB
:104BD8000136F2E71C4F00081C4F00081C4F000864
:104BE800204F00080A44914200F1FF3300D170477A
:104BF80010B511F8014B03F8014F9142F9D110BDDE
:104C08002DE9F047089D0C46002B4ED194468C4563
:104C18008646B2FA82F262D94AB1C2F120039140C3
:104C280020FA03F30CFA02FC194300FA02FE4FEAD9
:104C38001C471FFA8CF6B1FBF7F44FEA1E4307FB3B
:104C4800141143EA014304FB06F199420AD91CEB0B
:104C5800030304F1FF3080F01381994240F2108180
:104C6800023C6344591A1FFA8EF3B1FBF7F007FBB5
:104C7800101143EA014300FB06F69E420AD91CEBD9
:104C8800030300F1FF3180F0FD809E4240F2FA807C
:104C9800634402389B1B40EA044000211DB1D34005
:104CA8000022C5E90032BDE8F0878B4205D90DB175
:104CB800C5E9000100210846F5E7B3FA83F10029A8
:104CC80046D1A34202D39042C0F0F180861A64EB29
:104CD80003030120002DE6D0C5E90063E3E7002ABD
:104CE80040F09180A1EB0C044FEA1C481FFA8CF7A6
:104CF8000121B4FBF8F64FEA1E4308FB164443EAC9
:104D0800044307FB06F0984208D91CEB030306F19D
:104D1800FF3402D2984200F2CE8026461C1A1FFAAF
:104D28008EF3B4FBF8F008FB104443EA044300FB9D
:104D380007F79F4208D91CEB030300F1FF3402D2A6
:104D48009F4200F2B1802046DB1B40EA0640A5E7FF
:104D5800C1F120068B4022FA06F71F4320FA06FC11
:104D680004FA01F343EA0C03F44000FA01F8380CA2
:104D78004FEA1349B4FBF0FE1FFA87FC00FB1E4400
:104D880049EA04440EFB0CF9A14502FA01F20AD9DA
:104D98003C190EF1FF3A80F08580A14540F28280EF
:104DA800AEF1020E3C44A4EB09041FFA83F9B4FBEC
:104DB800F0F300FB134449EA044403FB0CFCA4454C
:104DC80007D93C1903F1FF3068D2A44566D9023BE4
:104DD8003C4443EA0E40A0FB0293A4EB0C049C4223
:104DE800CE469C4652D34FD055B1B8EB0E0364EB78
:104DF8000C0404FA06F6CB40CC401E43C5E9006417
:104E08000021BDE8F087C2F1200320FA03F10CFA73
:104E180002FC24FA03F394400C434FEA1C4800FABE
:104E280002FE1FFA8CF7B3FBF8F008FB1031230CD5
:104E380043EA014300FB07F1994208D91CEB03033D
:104E480000F1FF362CD299422AD9023863445B1A02
:104E5800A4B2B3FBF8F108FB113344EA034401FBA5
:104E680007F3A34208D91CEB040401F1FF3613D25F
:104E7800A34211D902396444E41A41EA004138E7EF
:104E88000446EFE6084605E7C845ADD2B9EB020E81
:104E980063EB070C0138A7E73146EDE7034698E7CF
:104EA8003046D4E7D6467EE7634402384CE70646E8
:104EB800234608460EE7023E63442FE7F8B500BFD5
:104EC800F8BC08BC9E467047F8B500BFF8BC08BCE3
:044ED8009E4670473B
:104EDC0000000000010203040000000000000000BC
:104EEC00010203040607080901020304050607086A
:104EFC00090A0B0C0D0E0F10020304050607080916
:084F0C000A0B0C0D0E0F101032
:084F1400F4FCFF7F0100000026
:044F1C002502000862
:044F2000FD01000887
:104F24000601000000127A000100000010000000D9
:104F3400B94A0008C14A0008C94A0008D14A000811
:044F4400D94A00083E
:0400000508004B4163
:00000001FF
